:1000000000400020CF0A0000650B00006D0B0000CF
:1000100000000000000000000000000000000000E0
:10002000000000000000000000000000650B000060
:100030000000000000000000650B0000650B0000E0
:10004000650B0000650B0000650B0000650B0000F0
:10005000650B0000650B0000650B0000650B0000E0
:10006000650B0000650B0000650B0000650B0000D0
:10007000650B0000650B0000650B0000650B0000C0
:10008000650B0000650B0000650B0000650B0000B0
:10009000650B0000650B0000650B0000650B0000A0
:1000A000650B0000650B0000650B0000650B000090
:1000B0000000000000000000000000000000000040
:1000C00080B582B000AF7860C0467B685A1E7A6007
:1000D000002BFAD1C046C046BD4602B080BD80B5F7
:1000E00000AF3220FFF7ECFFC046BD4680BD80B5B3
:1000F00084B000AF78600023FB6002E0FB6801334E
:10010000FB607A6813005B009B185B001A00FB68B9
:100110009A42F3D8C046C046BD4604B080BD80B503
:1001200084B000AF78600023FB600CE00023BB606C
:1001300002E0BB680133BB60BB68074A9342F8D951
:10014000FB680133FB60FA687B689A42EED3C046D5
:10015000C046BD4604B080BD6F17000080B500AF3B
:10016000044B00221A60044B00221A60C046BD46B0
:1001700080BDC046080F03402800034080B500AF93
:10018000094B0A4A1A600A4B802252001A60064B39
:100190001A68054B07490A431A60074B41221A6047
:1001A000C046BD4680BDC046000001404100004041
:1001B0000403014041FF00804801014080B500AFC9
:1001C000084B1B683F2293431A00064B24210A4325
:1001D0001A60054B1A68044B03210A431A60C04693
:1001E000BD4680BD080304400003044080B500AF55
:1001F000104B1A680F4B02210A431A600D4B1A6804
:100200000C4B01210A431A60FFF769FF094B1A687A
:10021000084B02218A431A60FFF761FF054B1A68F9
:10022000044B01218A431A60FFF759FFC046BD46BF
:1002300080BDC0460003044080B500AF0D4B1A6876
:100240000C4B02218A431A60FFF749FF094B1A68D9
:10025000084B01210A431A60FFF741FF054B1A685A
:10026000044B02210A431A60FFF739FFC046BD461E
:1002700080BDC0460003044080B582B000AF0200DC
:10028000FB1D1A70FB1D1B78002B06D0114B1A6842
:10029000104B02210A431A6005E00E4B1A680D4B01
:1002A00002218A431A60FFF71AFF0A4B1A68094BAA
:1002B00001210A431A60FFF712FF064B1A68054B2B
:1002C00001218A431A60FFF70AFFC046BD4602B00B
:1002D00080BDC0460003044090B585B000AF020069
:1002E000FB1D1A700F23FB1807221A7016E0FB1D66
:1002F0001A780F243B191B785BB21A411300DBB24A
:1003000001221340DBB21800FFF7B6FF3B191B7840
:100310005BB2DBB2013BDAB23B191A700F23FB1858
:100320001B787F2BE3D90E4B1A680D4B02210A4331
:100330001A60FFF7D4FE0A4B1A68094B01210A43E1
:100340001A60FFF7CCFE064B1A68054B01218A4361
:100350001A60FFF7C4FEC046BD4605B090BDC0465A
:100360000003044080B582B000AF0200FB1D1A708C
:10037000FFF73CFF4E20FFF7AFFFFB1D1B78180077
:10038000FFF7AAFFFFF758FFC046BD4602B080BD89
:1003900080B582B000AF0200FB1D1A70FB1D1B78F8
:1003A00004221343DBB21800FFF7DCFFFFF797FED0
:1003B000FB1D1B7804229343DBB21800FFF7D2FF2A
:1003C000FA23DB001800FFF77BFEC046BD4602B0F3
:1003D00080BD80B584B000AF0200FB1D1A70BB1D4C
:1003E0000A1C1A700F203B18BA1D127808210A4304
:1003F0001A70FB1D1B780822134006D03B183A18D0
:100400001278802149420A431A70FB1D1B7804228E
:10041000134006D00F22BB18BA18127840210A43A5
:100420001A70FB1D1B780222134006D00F22BB1846
:10043000BA18127820210A431A70FB1D1B7801227A
:10044000134006D00F22BB18BA18127810210A43A5
:100450001A700F23FB181B781800FFF799FFC0468E
:10046000BD4604B080BD80B582B000AF0200FB1D68
:100470001A70BB1D0A1C1A70FB1D1B781B09DAB20F
:10048000BB1D1B7819001000FFF7A3FFFB1D1B7895
:100490000F221340DAB2BB1D1B7819001000FFF7C2
:1004A00098FFFA23DB001800FFF70AFEC046BD469E
:1004B00002B080BD80B582B000AF0200FB1D1A7093
:1004C000FB1D1B7800211800FFF7CDFFC046BD467D
:1004D00002B080BD80B582B000AF0200FB1D1A7073
:1004E000FB1D1B7801211800FFF7BDFFC046BD466C
:1004F00002B080BD80B500AF194B1800FFF7E0FDDA
:1005000000210320FFF765FF164B1800FFF7D8FD09
:1005100000210320FFF75DFF134B1800FFF7D0FD0C
:1005200000210320FFF755FFFA23DB001800FFF737
:10053000C7FD00210220FFF74CFF2820FFF7BAFF7C
:100540000C20FFF7B7FF0620FFF7B4FF0120FFF7ED
:10055000B1FF064B1800FFF7B3FDC046BD4680BD96
:1005600020A1070050C3000088130000204E0000A7
:1005700080B584B000AF0200FB1D1A70BB1D0A1CC1
:100580001A70FB1D1B78002B04D10F23FB180022CF
:100590001A7003E00F23FB1840221A700F23FA1879
:1005A000BB1D12781B78D318DBB280225242134352
:1005B000DBB21800FFF77EFFC046BD4604B080BD29
:1005C00080B582B000AF786006E07B685A1C7A6024
:1005D0001B781800FFF77EFF7B681B78002BF4D197
:1005E000C046C046BD4602B080BD80B500AF012008
:1005F000FFF760FF034B1800FFF762FDC046BD46E2
:1006000080BDC046204E000090B585B000AF02000E
:10061000BB1D1A807B1D0A1C1A7008203B18244A37
:100620001168196092889A800F217B187A1D1278C0
:10063000013A1A70BB1D1B88002B24D17B181B7834
:100640003A183021D15429E0BB1D1B880A2118001B
:1006500000F016FB0B009BB2DAB20F217B181B785F
:100660007918581E0870190013003033DAB20823C5
:10067000FB185A54BC1DBB1D1B880A21180000F032
:1006800079FA03002380BB1D1B88002B06D00F23A3
:10069000FA187B1D12781B789A42D5D30823FB18D1
:1006A0001800FFF78DFFC046BD4605B090BDC0469F
:1006B000D40C000080B500AF074B1A68064B072129
:1006C0008A431A60054B1A68044B0F218A431A604B
:1006D000C046BD4680BDC04608020440000202403C
:1006E00080B500AF104B1A680F4B10490A401A60D2
:1006F0000D4B1A680C4B70210A431A600C4B1A6898
:100700000B4BF0218A431A60094B1A68084B0949C0
:100710000A401A60084B1A68074B02218A431A6084
:10072000C046BD4680BDC0460801044007FEFFFF2D
:1007300000010240FFF0FFFF0001044080B584B0DB
:1007400000AF0023FB600023BB60274B1A68264BD9
:1007500002218A431A600220FFF7C9FC224B1A6863
:10076000214B02210A431A600A20FFF7C0FC1E4BEE
:100770001A681D4B02218A431A600023BB6008E0FF
:10078000BB680133BB60BB68184A934201D90023A0
:1007900025E0174B1B689B0801221340F0D0002373
:1007A000FB6006E0FB680133FB60FB680F4A934285
:1007B00007D80F4B1B689B0801221340012BF1D077
:1007C00000E0C046FB680621180000F0D3F90300E2
:1007D0007B607B683A21180000F0CCF90300180018
:1007E000BD4604B080BDC046000104401FBF0200EA
:1007F0000401044080B500AF114B1A68104B38213A
:100800008A431A600F4B1A680E4BF0218A431A6014
:100810000D4B1A680C4B0D490A431A600C4B02220F
:100820001A600C4B1A680B4B0A210A431A600A4BD8
:1008300001221A60094B01221A60C046BD4680BDE4
:10084000080204400002024000003A40E00E00C0EE
:1008500000033A4010003A4080003A4020003A40FD
:1008600080B500AF0C4B01221A60C0460B4B1B68D1
:1008700001221340012BF9D1084B1A68074B0121C3
:100880000A431A60064B1B689BB21B051B0D9BB2EB
:100890001800BD4680BDC04624003A4010023A40D0
:1008A00080013A4080B582B000AF0200FB1D1A7093
:1008B0003B1D0A1C1A80FFF798FE00210020FFF75D
:1008C00057FE184B1800FFF77BFEFB1D1B78002B13
:1008D00001D0154B00E0154B1800FFF771FE3B1DD2
:1008E0001A88FA23DB009A4201D9114B00E0114B20
:1008F0001800FFF765FE00210120FFF739FE0E4BBF
:100900001800FFF75DFE3B1D1B8804211800FFF750
:100910007BFE0A4B1800FFF753FEC046BD4602B0EF
:1009200080BDC046DC0C0000E40C0000EC0C0000B4
:10093000F40C0000FC0C0000040D00000C0D000085
:1009400080B582B000AF7860FFF74FFE0021002035
:10095000FFF70EFE1C4B1800FFF732FE00210120AE
:10096000FFF706FE7B68002B04D1184B1800FFF739
:1009700027FE25E07B689BB203211800FFF744FEA9
:10098000134B1800FFF71CFE7B68042B04D8114B97
:100990001800FFF715FE13E07B680E2B04D80E4BF2
:1009A0001800FFF70DFE0BE07B68182B04D80B4BEB
:1009B0001800FFF705FE03E0094B1800FFF700FEE3
:1009C000BD4602B080BDC046140D0000280D0000D9
:1009D0003C0D0000400D0000480D0000500D0000CF
:1009E000580D000090B583B000AFFFF7B7FBFFF7DD
:1009F000C5FBFFF7E3FBFFF77DFDFFF75BFEFFF7AE
:100A00006FFEFFF7F7FEFFF7F0FD00210020FFF774
:100A1000AFFD284B1800FFF7D3FD00210120FFF7A1
:100A2000A7FD254B1800FFF7CBFDFA23DB001800CC
:100A3000FFF775FBFB1D00221A703B1D00221A8078
:100A400000233B60FB1D1B78002B02D0012B12D032
:100A50001AE03C1DFFF704FF03002380174B1B68BF
:100A6000DBB201221340DAB23B1D1B8819001000D3
:100A7000FFF718FF0CE0FFF761FE03003B603B68E7
:100A80001800FFF75DFF03E0FB1D00221A70C0464F
:100A90000B4B1800FFF714FBFB1DFA1D12780132F7
:100AA0001A70FB1D1B78012BCCD9FB1D00221A707C
:100AB000C8E7C046600D0000740D00000402044049
:100AC00080A8120180B500AFC046BD4680BD80B58C
:100AD00086B000AF1C4B1D4A1A601D4A1D4BD31A2D
:100AE0009B107B601B4B7B611B4B3B610023FB60BE
:100AF0000AE03A69131D3B617B69191D796112682F
:100B00001A60FB680133FB60FA687B689A42F0D395
:100B1000124A134BD31A9B107B60114B7B6100234D
:100B2000BB6007E07B691A1D7A6100221A60BB680E
:100B30000133BB60BA687B689A42F3D300F0A6F831
:100B4000FFF750FFC046FDE7380003406588EDAC75
:100B50000000002000000020880D000000000020A0
:100B60000000002080B500AFC046FDE780B500AFB3
:100B7000C046FDE7002243088B4274D303098B4231
:100B80005FD3030A8B4244D3030B8B4228D3030C5D
:100B90008B420DD3FF22090212BA030C8B4202D3FF
:100BA0001212090265D0030B8B4219D300E0090A27
:100BB000C30B8B4201D3CB03C01A5241830B8B4230
:100BC00001D38B03C01A5241430B8B4201D34B0319
:100BD000C01A5241030B8B4201D30B03C01A52417E
:100BE000C30A8B4201D3CB02C01A5241830A8B4203
:100BF00001D38B02C01A5241430A8B4201D34B02EC
:100C0000C01A5241030A8B4201D30B02C01A52414F
:100C1000CDD2C3098B4201D3CB01C01A5241830903
:100C20008B4201D38B01C01A524143098B4201D33D
:100C30004B01C01A524103098B4201D30B01C01A68
:100C40005241C3088B4201D3CB00C01A52418308E2
:100C50008B4201D38B00C01A524143088B4201D30F
:100C60004B00C01A5241411A00D20146524110466F
:100C70007047FFE701B5002000F006F802BDC0464E
:100C80000029F7D076E770477047C04670B5002658
:100C90000C4C0D4D641BA410A64209D10026FFF791
:100CA00011FF0A4C0A4D641BA410A64205D170BD69
:100CB000B300EB5898470136EEE7B300EB5898477E
:100CC0000136F2E700000000000000000000000014
:100CD000000000002020202020000000536F696CDD
:100CE0003A000000445259200000000057455420AB
:100CF0000000000053756E3A4849000053756E3A83
:100D00004C4F00004C44523A0000000020202020AC
:100D10002020200054616E6B204C6576656C3A2073
:100D2000202020200000000020204F7574206F66D6
:100D30002072616E6765202000000000636D200056
:100D400046554C4C20000000474F4F442000000007
:100D50004C4F572120000000454D54592100000000
:100D600020536D617274204661726D205379732037
:100D7000000000002050536F4320343130305320A6
:080D8000506C757300000000C7
:0400000300000ACF20
:00000001FF
