:1000000000400020B70500004D0600005506000026
:1000100000000000000000000000000000000000E0
:100020000000000000000000000000004D0600007D
:1000300000000000000000004D0600004D0600001A
:100040004D0600004D0600004D0600004D06000064
:100050004D0600004D0600004D0600004D06000054
:100060004D0600004D0600004D0600004D06000044
:100070004D0600004D0600004D0600004D06000034
:100080004D0600004D0600004D0600004D06000024
:100090004D0600004D0600004D0600004D06000014
:1000A0004D0600004D0600004D0600004D06000004
:1000B0000000000000000000000000000000000040
:1000C00080B584B000AF78600023FB6002E0FB687D
:1000D0000133FB60FA687B689A42F8D3C046C04699
:1000E000BD4604B080BD80B582B000AF00237B6008
:1000F00002E07B6801337B607B68312BF9D9C04615
:10010000C046BD4602B080BD80B500AF084B1B683D
:100110003F2293431A00064B24210A431A60054BE1
:100120001A68044B03210A431A60C046BD4680BDCD
:10013000080304400003044080B500AF104B1A6868
:100140000F4B02210A431A600D4B1A680C4B012118
:100150000A431A60FFF7C7FF094B1A68084B0221D0
:100160008A431A60FFF7BFFF054B1A68044B012151
:100170008A431A60FFF7B7FFC046BD4680BDC04640
:100180000003044080B500AF0D4B1A680C4B0221F0
:100190008A431A60FFF7A7FF094B1A68084B012131
:1001A0000A431A60FFF79FFF054B1A68044B0221B0
:1001B0000A431A60FFF797FFC046BD4680BDC046A0
:1001C0000003044080B582B000AF0200FB1D1A702E
:1001D000FB1D1B78002B06D0114B1A68104B022117
:1001E0000A431A6005E00E4B1A680D4B02218A4340
:1001F0001A60FFF778FF0A4B1A68094B01210A437E
:100200001A60FFF770FF064B1A68054B01218A43FD
:100210001A60FFF768FFC046BD4602B080BDC04609
:100220000003044090B585B000AF0200FB1D1A70BA
:100230000F23FB1807221A7016E0FB1D1A780F24F3
:100240003B191B785BB21A411300DBB20122134049
:10025000DBB21800FFF7B6FF3B191B785BB2DBB2CD
:10026000013BDAB23B191A700F23FB181B787F2B66
:10027000E3D90E4B1A680D4B02210A431A60FFF7AF
:1002800032FF0A4B1A68094B01210A431A60FFF733
:100290002AFF064B1A68054B01218A431A60FFF7B3
:1002A00022FFC046BD4605B090BDC04600030440D5
:1002B00080B582B000AF0200FB1D1A70FFF73CFF53
:1002C0004E20FFF7AFFFFB1D1B781800FFF7AAFFBA
:1002D000FFF758FFC046BD4602B080BD80B582B072
:1002E00000AF0200FB1D1A70FB1D1B780422134394
:1002F000DBB21800FFF7DCFFFFF7F5FEFB1D1B78F4
:1003000004229343DBB21800FFF7D2FFFA23DB008D
:100310001800FFF7D5FEC046BD4602B080BD80B5CF
:1003200084B000AF0200FB1D1A70BB1D0A1C1A70BE
:100330000F203B18BA1D127808210A431A70FB1DC2
:100340001B780822134006D03B183A1812788021F7
:1003500049420A431A70FB1D1B780422134006D041
:100360000F22BB18BA18127840210A431A70FB1DDD
:100370001B780222134006D00F22BB18BA1812783D
:1003800020210A431A70FB1D1B780122134006D05E
:100390000F22BB18BA18127810210A431A700F23C3
:1003A000FB181B781800FFF799FFC046BD4604B044
:1003B00080BD80B582B000AF0200FB1D1A70BB1D6E
:1003C0000A1C1A70FB1D1B781B09DAB2BB1D1B78B7
:1003D00019001000FFF7A3FFFB1D1B780F2213402D
:1003E000DAB2BB1D1B7819001000FFF798FFFA2343
:1003F000DB001800FFF764FEC046BD4602B080BDBA
:1004000080B582B000AF0200FB1D1A70FB1D1B7887
:1004100000211800FFF7CDFFC046BD4602B080BDE9
:1004200080B582B000AF0200FB1D1A70FB1D1B7867
:1004300001211800FFF7BDFFC046BD4602B080BDD8
:1004400080B500AF194B1800FFF73AFE00210320DA
:10045000FFF765FF164B1800FFF732FE002103205F
:10046000FFF75DFF134B1800FFF72AFE0021032062
:10047000FFF755FFFA23DB001800FFF721FE0021EC
:100480000220FFF74CFF2820FFF7BAFF0C20FFF7F0
:10049000B7FF0620FFF7B4FF0120FFF7B1FF064BBF
:1004A0001800FFF70DFEC046BD4680BD20A1070025
:1004B00050C3000088130000204E000080B584B0B7
:1004C00000AF0200FB1D1A70BB1D0A1C1A70FB1D39
:1004D0001B78002B04D10F23FB1800221A7003E0B5
:1004E0000F23FB1840221A700F23FA18BB1D127835
:1004F0001B78D318DBB2802252421343DBB21800C0
:10050000FFF77EFFC046BD4604B080BD80B582B017
:1005100000AF786006E07B685A1C7A601B78180090
:10052000FFF77EFF7B681B78002BF4D1C046C046E6
:10053000BD4602B080BD80B500AF0120FFF760FF6F
:10054000034B1800FFF7BCFDC046BD4680BDC0464A
:10055000204E000080B500AFFFF7D6FDFFF770FF1B
:1005600000210020FFF7AAFF0D4B1800FFF7CEFF78
:1005700000210120FFF7A2FF0A4B1800FFF7C6FF7A
:100580000820FFF73DFF084B1800FFF799FD0C20EE
:10059000FFF736FF044B1800FFF792FDC046EFE768
:1005A000A4060000B8060000801A060080B500AF5F
:1005B000C046BD4680BD80B586B000AF1C4B1D4A0D
:1005C0001A601D4A1D4BD31A9B107B601B4B7B612D
:1005D0001B4B3B610023FB600AE03A69131D3B6142
:1005E0007B69191D796112681A60FB680133FB6031
:1005F000FA687B689A42F0D3124A134BD31A9B10C5
:100600007B60114B7B610023BB6007E07B691A1D97
:100610007A6100221A60BB680133BB60BA687B68EC
:100620009A42F3D300F01AF8FFF794FFC046FDE7B3
:10063000380003406588EDAC000000200000002079
:10064000CC060000000000200000002080B500AFB4
:10065000C046FDE780B500AFC046FDE770B5002697
:100660000C4C0D4D641BA410A64209D10026FFF7C7
:100670009DFF0A4C0A4D641BA410A64205D170BD13
:10068000B300EB5898470136EEE7B300EB589847B4
:100690000136F2E70000000000000000000000004A
:1006A00000000000202048656C6C6F20576F726C52
:1006B00064212020000000002050536F432034317B
:0C06C00030305320506C757300000000B7
:04000003000005B73D
:00000001FF
