:100000000030002057020000ED020000F502000061
:1000100000000000000000000000000000000000E0
:10002000000000000000000000000000ED020000E1
:100030000000000000000000ED020000ED020000E2
:10004000ED020000ED020000ED020000ED020000F4
:10005000ED020000ED020000ED020000ED020000E4
:10006000ED020000ED020000ED020000ED020000D4
:10007000ED020000ED020000ED020000ED020000C4
:10008000ED020000ED020000ED020000ED020000B4
:10009000ED020000ED020000ED020000ED020000A4
:1000A000ED020000ED020000ED020000ED02000094
:1000B0000000000000000000000000000000000040
:1000C00080B582B000AF7860C0467B685A1E7A6007
:1000D000002BFAD1C046C046BD4602B080BD80B5F7
:1000E00000AF104B1B68104A1A400E4B8021C90309
:1000F0000A431A600D4B1A680C4B80210A431A60A0
:100100000B4B1B680B4A1A40094BC02149000A439C
:100110001A60094B1A68084B04210A431A60C0464A
:10012000BD4680BD08030440FFFF1FFF00030440DD
:10013000080204403FFEFFFF0002044080B582B089
:1001400000AFFFF7CCFF00F0B3FA00F011FB002185
:10015000002000F025FB364B180000F05AFBFB1D79
:1001600001221A70334B1B685A1C324B1A60324BF7
:100170001B68DB09DAB2BB1D01210A401A70BB1DE6
:100180001B78002B4ED1FB1D1B78012B4AD12B4B2A
:100190001800FFF795FF284B1B68DB09012213406D
:1001A00040D1244B1B680621180000F0CDFB0B004A
:1001B000DAB27B1D01321A70214B1A68204B0421E0
:1001C0008A431A601F4B1800FFF77AFF1C4B1A680E
:1001D0001B4B04210A431A6000F0CAFA00210020D8
:1001E00000F0DEFA184B180000F013FB002101208C
:1001F00000F0D6FA7B1D1B783033DAB23B001A7060
:100200003B0000225A703B00180000F002FBC04681
:10021000094B1B68DB0901221340F9D0074B18007A
:10022000FFF74EFFFB1DBA1D12781A709AE7C04601
:100230009C0900000400002004030440204E00003C
:100240000002044030750000AC09000080B500AF2A
:10025000C046BD4680BD80B586B000AF1C4B1D4A70
:100260001A601D4A1D4BD31A9B107B601B4B7B6190
:100270001B4B3B610023FB600AE03A69131D3B61A5
:100280007B69191D796112681A60FB680133FB6094
:10029000FA687B689A42F0D3124A134BD31A9B1028
:1002A0007B60114B7B610023BB6007E07B691A1DFB
:1002B0007A6100221A60BB680133BB60BA687B6850
:1002C0009A42F3D300F046FBFFF738FFC046FDE744
:1002D000380003406588EDAC0400002000000020D9
:1002E000BC090000080000200400002080B500AF19
:1002F000C046FDE780B500AFC046FDE780B582B0DF
:1003000000AF00237B6002E07B6801337B607B6889
:10031000312BF9D9C046C046BD4602B080BD80B57C
:1003200000AF094B1B683F2293431A00064B242160
:100330000A431A60054B1A68044B03210A431A60EA
:10034000C046BD4680BDC0460803044000030440CB
:1003500080B500AF104B1A680F4B02210A431A6098
:100360000D4B1A680C4B01210A431A60FFF7C6FFB8
:10037000094B1A68084B02218A431A60FFF7BEFF37
:10038000054B1A68044B01218A431A60FFF7B6FF38
:10039000C046BD4680BDC0460003044080B500AFE6
:1003A0000D4B1A680C4B02218A431A60FFF7A6FF17
:1003B000094B1A68084B01210A431A60FFF79EFF98
:1003C000054B1A68044B02210A431A60FFF796FF97
:1003D000C046BD4680BDC0460003044080B582B023
:1003E00000AF0200FB1D1A70FB1D1B78002B06D00E
:1003F000114B1A68104B02210A431A6005E00E4B9C
:100400001A680D4B02218A431A60FFF777FF0A4BE7
:100410001A68094B01210A431A60FFF76FFF064B68
:100420001A68054B01218A431A60FFF767FFC0462F
:10043000BD4602B080BDC0460003044080B582B016
:1004400000AF154B1A68144B02210A431A60FFF7DC
:1004500055FF114B1A68104B01210A431A60FFF730
:100460004DFF0E4B1B685B0801221340DB07DB0FBF
:1004700001225340DAB2FB1D1A70074B1A68064B73
:1004800001218A431A60FFF739FFFB1D1B78180012
:10049000BD4602B080BDC0460003044004030440D2
:1004A00090B585B000AF0200FB1D1A700F23FB183A
:1004B00007221A7016E0FB1D1A780F243B191B78CF
:1004C0005BB21A411300DBB201221340DBB2180009
:1004D000FFF784FF3B191B785BB2DBB2013BDAB25A
:1004E0003B191A700F23FB181B787F2BE3D9FFF7FA
:1004F000A5FFC046BD4605B090BD80B582B000AF37
:100500000200FB1D1A70FFF723FF4E20FFF7C8FF04
:10051000FB1D1B781800FFF7C3FFFFF73FFFC04626
:10052000BD4602B080BD80B582B000AF0200FB1DA9
:100530001A70FB1D1B7804221343DBB21800FFF76F
:10054000DCFFFFF7DBFEFB1D1B7804229343DBB2CD
:100550001800FFF7D2FFFFF7D1FEC046BD4602B03C
:1005600080BD80B584B000AF0200FB1D1A70BB1DBA
:100570000A1C1A70264B19780F203B18BA1D1278E6
:100580000A431A70FB1D1B785BB21B015BB27F2212
:1005900093435AB201007B181B785BB213435AB2E3
:1005A0007B181A70FB1D1B785BB21B015BB24022EB
:1005B00013405AB27B181B785BB213435AB27B18B4
:1005C0001A70FB1D1B785BB21B015BB2202213402B
:1005D0005AB27B181B785BB213435AB27B181A705D
:1005E000FB1D1B785BB21B015BB2102213405AB299
:1005F0007B181B785BB213435AB27B181A707B18B6
:100600001B781800FFF78FFFC046BD4604B080BDC1
:100610000000002080B584B000AF0200FB1D1A70FE
:10062000BB1D0A1C1A70FB1D1B781B09DAB2BB1D0F
:100630001B7819001000FFF794FFFB1D1B780F2299
:100640001340DAB2BB1D1B7819001000FFF789FFB9
:100650000023FB6002E0FB680133FB60FA68FA23C9
:10066000DB009A42F7D3C046C046BD4604B080BD09
:1006700080B582B000AF0200FB1D1A70FB1D1B7815
:1006800000211800FFF7C6FFC046BD4602B080BD7E
:1006900080B582B000AF0200FB1D1A70FB1D1B78F5
:1006A00001211800FFF7B6FFC046BD4602B080BD6D
:1006B00080B586B000AFFFF732FE00237B6102E019
:1006C0007B6901337B617B69264A9342F8D900211B
:1006D0000320FFF746FF00233B6102E03B69013343
:1006E0003B613B69204A9342F8D900210320FFF780
:1006F00038FF0023FB6002E0FB680133FB60FA680F
:10070000FA231B019A42F7D300210320FFF729FFA8
:100710000023BB6002E0BB680133BB60BA68FA2308
:100720001B019A42F7D300210220FFF71AFF28206D
:10073000FFF79EFF0C20FFF79BFF0620FFF798FFB7
:100740000120FFF795FF00237B6002E07B68013307
:100750007B607B68054A9342F8D9C046C046BD46D7
:1007600006B080BD1FA107003F9C00001F4E000087
:1007700080B582B000AF0120FFF77AFF00237B60D5
:1007800002E07B6801337B607B68044A9342F8D9BE
:10079000C046C046BD4602B080BDC0461F4E0000E8
:1007A00080B584B000AF0200FB1D1A70BB1D0A1C8F
:1007B0001A70FB1D1B78002B04D10F23FB1800229D
:1007C0001A7003E00F23FB1840221A700F23FA1847
:1007D000BB1D12781B78D318DBB25BB28022524269
:1007E00013435BB2DBB21800FFF742FFC046BD46C1
:1007F00004B080BD80B582B000AF0200FB1D1A704E
:10080000FB1D1B781800FFF743FFC046BD4602B032
:1008100080BD80B582B000AF786006E07B685A1C6E
:100820007A601B781800FFF733FF7B681B78002B7A
:10083000F4D1C046C046BD4602B080BD0022430888
:100840008B4274D303098B425FD3030A8B4244D398
:10085000030B8B4228D3030C8B420DD3FF220902DA
:1008600012BA030C8B4202D31212090265D0030B99
:100870008B4219D300E0090AC30B8B4201D3CB038F
:10088000C01A5241830B8B4201D38B03C01A5241D1
:10089000430B8B4201D34B03C01A5241030B8B42D3
:1008A00001D30B03C01A5241C30A8B4201D3CB02BE
:1008B000C01A5241830A8B4201D38B02C01A5241A3
:1008C000430A8B4201D34B02C01A5241030A8B42A6
:1008D00001D30B02C01A5241CDD2C3098B4201D3BE
:1008E000CB01C01A524183098B4201D38B01C01A3C
:1008F000524143098B4201D34B01C01A52410309B3
:100900008B4201D30B01C01A5241C3088B4201D361
:10091000CB00C01A524183088B4201D38B00C01A0E
:10092000524143088B4201D34B00C01A5241411A35
:1009300000D20146524110467047FFE701B5002042
:1009400000F006F802BDC0460029F7D076E77047F0
:100950007047C04670B500260C4C0D4D641BA410AA
:10096000A64209D10026FFF771FC0A4C0A4D641B10
:10097000A410A64205D170BDB300EB5898470136CC
:10098000EEE7B300EB5898470136F2E700000000AD
:100990000000000000000000000000002044696723
:1009A0006974616C204469636520000020526F6C9B
:0C09B0006C20526573756C742000000010
:0409BC00080000002F
:0400000300000257A0
:00000001FF
