:1000000000400020D3090000690A0000710A0000C6
:1000100000000000000000000000000000000000E0
:10002000000000000000000000000000690A00005D
:100030000000000000000000690A0000690A0000DA
:10004000690A0000690A0000690A0000690A0000E4
:10005000690A0000690A0000690A0000690A0000D4
:10006000690A0000690A0000690A0000690A0000C4
:10007000690A0000690A0000690A0000690A0000B4
:10008000690A0000690A0000690A0000690A0000A4
:10009000690A0000690A0000690A0000690A000094
:1000A000690A0000690A0000690A0000690A000084
:1000B0000000000000000000000000000000000040
:1000C00080B582B000AF7860C0467B685A1E7A6007
:1000D000002BFAD1C046C046BD4602B080BD80B5F7
:1000E00084B000AF78607A6813005B009B18FB60F7
:1000F000C046FB685A1EFA60002BFAD1C046C046C3
:10010000BD4604B080BD80B582B000AF00237B60E7
:1001100002E07B6801337B607B68312BF9D9C046F4
:10012000C046BD4602B080BD80B500AF084B1B681D
:100130003F2293431A00064B24210A431A60054BC1
:100140001A68044B03210A431A60C046BD4680BDAD
:10015000080304400003044080B500AF104B1A6848
:100160000F4B02210A431A600D4B1A680C4B0121F8
:100170000A431A60FFF7C7FF094B1A68084B0221B0
:100180008A431A60FFF7BFFF054B1A68044B012131
:100190008A431A60FFF7B7FFC046BD4680BDC04620
:1001A0000003044080B500AF0D4B1A680C4B0221D0
:1001B0008A431A60FFF7A7FF094B1A68084B012111
:1001C0000A431A60FFF79FFF054B1A68044B022190
:1001D0000A431A60FFF797FFC046BD4680BDC04680
:1001E0000003044080B582B000AF0200FB1D1A700E
:1001F000FB1D1B78002B06D0114B1A68104B0221F7
:100200000A431A6005E00E4B1A680D4B02218A431F
:100210001A60FFF778FF0A4B1A68094B01210A435D
:100220001A60FFF770FF064B1A68054B01218A43DD
:100230001A60FFF768FFC046BD4602B080BDC046E9
:100240000003044090B585B000AF0200FB1D1A709A
:100250000F23FB1807221A7016E0FB1D1A780F24D3
:100260003B191B785BB21A411300DBB20122134029
:10027000DBB21800FFF7B6FF3B191B785BB2DBB2AD
:10028000013BDAB23B191A700F23FB181B787F2B46
:10029000E3D90E4B1A680D4B02210A431A60FFF78F
:1002A00032FF0A4B1A68094B01210A431A60FFF713
:1002B0002AFF064B1A68054B01218A431A60FFF793
:1002C00022FFC046BD4605B090BDC04600030440B5
:1002D00080B582B000AF0200FB1D1A70FFF73CFF33
:1002E0004E20FFF7AFFFFB1D1B781800FFF7AAFF9A
:1002F000FFF758FFC046BD4602B080BD80B582B052
:1003000000AF0200FB1D1A70FB1D1B780422134373
:10031000DBB21800FFF7DCFFFFF7F5FEFB1D1B78D3
:1003200004229343DBB21800FFF7D2FFFA23DB006D
:100330001800FFF7C5FEC046BD4602B080BD80B5BF
:1003400084B000AF0200FB1D1A70BB1D0A1C1A709E
:100350000F203B18BA1D127808210A431A70FB1DA2
:100360001B780822134006D03B183A1812788021D7
:1003700049420A431A70FB1D1B780422134006D021
:100380000F22BB18BA18127840210A431A70FB1DBD
:100390001B780222134006D00F22BB18BA1812781D
:1003A00020210A431A70FB1D1B780122134006D03E
:1003B0000F22BB18BA18127810210A431A700F23A3
:1003C000FB181B781800FFF799FFC046BD4604B024
:1003D00080BD80B582B000AF0200FB1D1A70BB1D4E
:1003E0000A1C1A70FB1D1B781B09DAB2BB1D1B7897
:1003F00019001000FFF7A3FFFB1D1B780F2213400D
:10040000DAB2BB1D1B7819001000FFF798FFFA2322
:10041000DB001800FFF754FEC046BD4602B080BDA9
:1004200080B582B000AF0200FB1D1A70FB1D1B7867
:1004300000211800FFF7CDFFC046BD4602B080BDC9
:1004400080B582B000AF0200FB1D1A70FB1D1B7847
:1004500001211800FFF7BDFFC046BD4602B080BDB8
:1004600080B500AF194B1800FFF72AFE00210320CA
:10047000FFF765FF164B1800FFF722FE002103204F
:10048000FFF75DFF134B1800FFF71AFE0021032052
:10049000FFF755FFFA23DB001800FFF711FE0021DC
:1004A0000220FFF74CFF2820FFF7BAFF0C20FFF7D0
:1004B000B7FF0620FFF7B4FF0120FFF7B1FF064B9F
:1004C0001800FFF7FDFDC046BD4680BD20A1070016
:1004D00050C3000088130000204E000080B582B099
:1004E00000AF0200FB1D1A70BB1D0A1C1A70FB1D19
:1004F0001B78002B01D0402300E00023BA1D1278A6
:100500009B18DBB2802252421343DBB21800FFF784
:1005100087FFC046BD4602B080BD80B582B000AF47
:10052000786006E07B685A1C7A601B781800FFF739
:1005300087FF7B681B78002BF4D1C046C046BD46C0
:1005400002B080BD80B500AF0120FFF769FF034B0B
:100550001800FFF7B5FDC046BD4680BD204E000027
:1005600080B500AF0A4B1A68094B07218A431A600D
:10057000074B1A68064B06210A431A60054B1A6896
:10058000044B01218A431A60C046BD4680BDC04667
:10059000080104400001044080B582B000AF7860DB
:1005A0000C4B1A680B4B01210A431A607B68180038
:1005B000FFF795FD074B1A68064B01218A431A6025
:1005C0007B68054AD31A1800FFF789FDC046BD466F
:1005D00002B080BD00010440204E000080B584B010
:1005E00000AF78600F23FB1800221A7009E07B68C7
:1005F0001800FFF7D1FF0F217B181A787B18013202
:100600001A700F23FB181B780E2BF0D9C046C0467A
:10061000BD4604B080BD80B586B000AFF860B9605B
:10062000FB1D1A701723FB1800221A700BE017210C
:100630007B181B78BA68D31820221A707B181A7896
:100640007B1801321A701723FA18FB1D12781B78D9
:100650009A42ECD3FB1D1B78BA68D31800221A709B
:10066000FB68002B07D1FB1D1B78013BBA68D31830
:1006700030221A7028E01623FB18FA1D12781A701F
:100680001AE0FB680A21180000F07CFA0B00DAB2CD
:1006900016203B1839180978013919703B181B7856
:1006A000B968CB183032D2B21A70FB680A21180030
:1006B00000F0E2F90300FB60FB68002B04D0162376
:1006C000FB181B78002BDCD1BD4606B080BD90B571
:1006D00089B000AF3B1D2F4A13CA13C303CA03C31B
:1006E0001D23FB1805221A7000210020FFF7F6FEDB
:1006F000294B1800FFF711FF1F23FB1800221A7067
:100700003AE000210120FFF7E9FE244B1800FFF733
:1007100004FF1F23FB181A783B1D9200D35818249E
:10072000391904221800FFF776FF3B191800FFF76C
:10073000F4FE1B4B1800FFF7F0FE1E23FB180022EF
:100740001A700EE01F23FB181A783B1D9200D35835
:100750001800FFF721FF1E217B181A787B18013241
:100760001A701E23FB181B781D2BEBD91F217B1839
:100770001A787B1801321A701F23FA181D23FB18F0
:1007800012781B789A42BCD3FFF7DCFEC046BD4608
:1007900009B090BDFC0B0000D80B0000EC0B000072
:1007A000F40B000080B500AF0A4B1A68094B3F21DB
:1007B0008A431A60074B1A68064B0E210A431A60D7
:1007C000054B1A68044B01218A431A60C046BD4696
:1007D00080BDC046080204400002044080B582B0DB
:1007E00000AF00237B6000233B60214B1A68204B45
:1007F00001218A431A600220FFF771FC1C4B1A6822
:100800001B4B01210A431A600A20FFF768FC184BB2
:100810001A68174B01218A431A6008E03B680133CC
:100820003B603B68134A934201D900231BE0124B03
:100830001B685B0801221340F0D006E07B6801339F
:100840007B607B680B4A934206D80B4B1B685B08A6
:1008500001221340F2D100E0C0467B68AE211800AF
:1008600000F00AF903001800BD4602B080BDC04682
:10087000000204401FBF02000402044090B585B08E
:1008800000AF78600A00FB1C1A7000210020FFF7FF
:1008900025FE7B68002B04D1194B1800FFF73DFEA5
:1008A0001CE07A68C8235B009A4204D9154B1800F3
:1008B000FFF733FE12E0082439197B680322180081
:1008C000FFF7A9FE104B1800FFF727FE3B19180091
:1008D000FFF723FE0D4B1800FFF71FFE002101203C
:1008E000FFF7FCFDFB1C1B78002B01D0084B00E040
:1008F000084B1800FFF711FEC046BD4605B090BD7D
:10090000100C0000240C0000380C0000400C00000B
:100910004C0C0000600C000080B582B000AFFFF707
:1009200003FCFFF73FFFFFF71BFEFFF799FD0021D8
:100930000020FFF7D3FD214B1800FFF7EEFD00214B
:100940000120FFF7CBFD1E4B1800FFF7E6FD1D4B06
:100950001800FFF7B5FBFFF7F5FDFFF7B8FEFA2328
:100960009B001800FFF73AFEFB1D00221A700023BF
:100970003B60FFF733FF03003B603B68002B06D072
:100980003B68132B03D8FB1D01221A7002E0FB1DEC
:1009900000221A70FB1D1B78002B02D0FA23DB000B
:1009A00001E0FA239B001800FFF718FEFB1D1A78E0
:1009B0003B6811001800FFF761FFDAE7740C0000D4
:1009C000880C0000804F120080B500AFC046BD46C5
:1009D00080BD80B586B000AF1C4B1D4A1A601D4A11
:1009E0001D4BD31A9B107B601B4B7B611B4B3B61E8
:1009F0000023FB600AE03A69131D3B617B69191D06
:100A0000796112681A60FB680133FB60FA687B68E1
:100A10009A42F0D3124A134BD31A9B107B60114BAE
:100A20007B610023BB6007E07B691A1D7A610022AD
:100A30001A60BB680133BB60BA687B689A42F3D323
:100A400000F0A6F8FFF768FFC046FDE73800034056
:100A50006588EDAC00000020000000209C0C000028
:100A6000000000200000002080B500AFC046FDE778
:100A700080B500AFC046FDE7002243088B4274D327
:100A800003098B425FD3030A8B4244D3030B8B428F
:100A900028D3030C8B420DD3FF22090212BA030C98
:100AA0008B4202D31212090265D0030B8B4219D379
:100AB00000E0090AC30B8B4201D3CB03C01A524199
:100AC000830B8B4201D38B03C01A5241430B8B42E1
:100AD00001D34B03C01A5241030B8B4201D30B03CA
:100AE000C01A5241C30A8B4201D3CB02C01A5241F1
:100AF000830A8B4201D38B02C01A5241430A8B42B4
:100B000001D34B02C01A5241030A8B4201D30B029C
:100B1000C01A5241CDD2C3098B4201D3CB01C01AB6
:100B2000524183098B4201D38B01C01A52414309C0
:100B30008B4201D34B01C01A524103098B4201D3AE
:100B40000B01C01A5241C3088B4201D3CB00C01A1B
:100B5000524183088B4201D38B00C01A5241430893
:100B60008B4201D34B00C01A5241411A00D20146B8
:100B7000524110467047FFE701B5002000F006F82B
:100B800002BDC0460029F7D076E770477047C046DF
:100B900070B500260C4C0D4D641BA410A64209D163
:100BA0000026FFF711FF0A4C0A4D641BA410A64251
:100BB00005D170BDB300EB5898470136EEE7B3009E
:100BC000EB5898470136F2E70000000000000000F3
:100BD0000000000000000000536572766F207377FC
:100BE00065657020746573740000000050756C7347
:100BF000653A00007573202000000000F401000039
:100C0000E8030000DC050000D0070000C409000074
:100C1000446973743A202D2D2020636D20202020FC
:100C200000000000446973743A203E343030206381
:100C30006D20202000000000446973743A200000F9
:100C400020636D2020202020200000004C696420BB
:100C50003A204F50454E2020202020200000000048
:100C60004C6964203A20434C4F53454420202020B7
:100C70000000000020536D6172742044757374622B
:100C8000696E20200000000050536F432034313043
:0C0C9000305320506C75732000000000F1
:04000003000009D31D
:00000001FF
